:090866000102040810204080008A
:10080400E4F51EF526F51F752004F525F51D1208DF
:02081400272299
:10000E00A907AF05AE04E9C39404502DC2AF051F76
:10001E00E990086693552660037F0022E9900866F2
:10002E00934226421EAD03AC02AB011202481207E8
:0C003E00DCD51F02D2AF7F01227F002220
:1006F100EFC39404501AC2AF051FEF90086693F43C
:10070100522612067E1207DCD51F02D2AF7F0122CC
:030711007F002244
:10077900EFC394045010C2AF051FEF90086693426F
:0A0789001ED51F02D2AF1207DC22BA
:1007AC00EFC394045011C2AF051FEF90086693F489
:0807BC00521ED51F02D2AF222C
:0D08370074212FF8E4F61207AC1207DC2242
:1007C400E51E5526FFE4F525EF20E00BEFC313FFEC
:0707D4000525E525B404F141
:0107DB0022FB
:1006CD00C2AF051FE51DD394004002151DE51D7039
:1006DD000BF51F1207C41205F57F0122D51F02D29B
:0406ED00AF7F0022B9
:1007DC00C2AF051FE51D70061207C4120844D51FD1
:0407EC0002D2AF2264
:10075900E4FF74212FF8E6600F1674212FF8E67074
:0F07690007EF90086693421E0FBF04E61207DCED
:01077800225E
:1007140074212520F8A607C2AF051F74212520F8EF
:10072400E6600AAF201207AC1207DC80EED51F0288
:03073400D2AF221F
:0A085C0074212FF8E4F61207792248
:1003A90074212520F8A605EF24FE600F1460192496
:1003B900027041AF201208377F042274212520F8EA
:1003C900E6FF1207147F0822C2AF051F74212520FA
:1003D900F8E670037F0822AF201207AC1207DCD5BC
:1003E9001F02D2AF74212520F8E66005E4F67F04E8
:0E03F900227F082274212520F8E4F67FFF22DF
:10065200C2AF051FEFC39402501AAE05EF25E02486
:100662002EF8A606EF25E0242FF8E4F6D51F02D2D5
:0C067200AF7F0122D51F02D2AF7FFF2214
:1002C400C2AF051FAE0574212520F8A606EF25E070
:1002D400242FF9E5209008669347F7EF25E0242EB4
:1002E400F8E670240581AE81A806A607AF201207A0
:1002F400AC1207DCAF81A807E6FF15817421252025
:10030400F8E670D7800280D3EF25E0242FF9E520AA
:1003140090086693F457F7EF25E0242EF8E6D3947B
:1003240000400916D51F02D2AF7F0122D51F02D289
:04033400AF7F022273
:10040700C2AF051FEF25E0242EF8E6C394FF500185
:1004170006EF25E0242FF8E6FEE4FDEE20E009EEE6
:10042700C313FE0DEDB404F3EDC394045013EF258D
:10043700E0242FF9ED90086693F457F7AF051207FC
:0804470079D51F02D2AF7F013D
:01044F00228A
:0A0851008F997F08E4FEDEFEDFFC55
:01085B00227A
:1007F00012004ED2AF7F781208517D647F0212033F
:04080000A980F222B7
:100816001208047C077DF0E4FBFAFF12000E80FE4E
:0108260022AF
:10051D0012004ED2AF7D01E4FF120652E4FDFF1230
:10052D0002C47F411208517F301208517F311208E9
:10053D00517F321208517F331208517F0A12085130
:0F054D00E4FF120407AD8A7F021203A980CE22B9
:10055C00E4FDFF1202C47F421208517F3012085191
:10056C007F311208517F321208517F331208517FAC
:10057C000A120851E4FF120407AD8A7F021203A984
:03058C0080CE22FC
:10058F00E4FDFF1202C47F431208517F301208515D
:10059F007F311208517F321208517F331208517F79
:1005AF000A120851E4FF120407AD8A7F021203A951
:0305BF0080CE22C9
:10062400E4FDFF1202C4E4FD7F441208517F451229
:1006340008517F461208517F471208517F20120843
:0D064400510DEDB464E2E4FF12040780D311
:010651002286
:10073700011300011C000118000119000115000137
:100747001000011400021A0000021100000216C076
:0107570000A1
:03000300020338BD
:10033800C0E0C083C082C0D075D008C2AF85178224
:10034800851683A3A3E054EFF513851782851683DA
:10035800A3A3A3E0F51CE5172404F582E43516F5FC
:1003680083E0F518851782851683A3A3E513F0E5C6
:10037800185407FFE5172404F582E43516F583EFD2
:10038800F0E51330E1080512E51270020511E513D6
:100398004215E5184210D2AFD0D0D082D083D0E039
:0103A8003222
:03004B000206A604
:1006A600C0E0C083C082C2AF851782851683A3A32C
:1006B600E05410F519851782851683A3A3F0D2AFEF
:0706C600D082D083D0E032A6
:10004E00E4F59A75E201E51724E2F582E51634042B
:10005E00F5837469F0E51724E3F582E5163404F5AB
:10006E00837478F0E51724E4F582E5163404F583FD
:10007E007401F0E51724E5F582E5163404F5837472
:10008E000EF0E51724E6F582E5163404F583E4F068
:10009E00E51724E7F582E5163404F583741BF0E5C5
:1000AE001724E8F582E5163404F583E4F0E5172409
:1000BE00E9F582E5163404F583740CF0E51724EAAD
:1000CE00F582E5163404F583E4F0E51724EBF582AA
:1000DE00E5163404F583740CF0E4F58E75896675B7
:1000EE008855758CF6758AF6758DCE7587C07598A0
:1000FE005075C05075B802C2A8D2A9C2AAC2ABC26E
:10010E00ADC2AC759E80C2AEC2AFC2E8C2E9C2EA51
:10011E00C2EBC2ECF5FAF5FBF5FC75FDFFF5FEF54D
:02012E00C822E5
:0F082700E4FF74272FF876320FBF05F6E4F52CA7
:01083600229F
:1004DA0074272FF8E6FE74282FF8E6FDAC06C39CB5
:1004EA00FCEF04FFEFD39520500EECF404FB7427C5
:1004FA002FF8EB26F60F80ECC3E5819D04FFAB05D0
:10050A000DA803E6AA060EA802F6DFF2C3E5819C4F
:02051A00F58169
:01051C0022BC
:1004960074272FF8E6FE14FD74282FF8E614FC7472
:1004A600282520F8E6FBC3EE9BFE600EAB051DA8D3
:1004B60003E6AA041CA802F6DEF2AE05C3EC9EFD16
:1004C600E52004FEEED39F500A74272EF8ED26F69B
:0304D6000E80F1A4
:0104D9002200
:1007930074272FF8E6FD7F300DF8A6077401A8052E
:0807A300F6AF058F811207C4B7
:0107AB00222B
:10067E007E01EFB520030E8008EFC395205002E4F3
:10068E00FEEE14600B14600C2402700B1204DA22BE
:07069E0012049622120793DB
:0106A5002232
:03000B000204509C
:10045000C2AFC0E0C0F0C083C082C0D075D000C0C1
:1004600000C001C002C003C004C005C006C007052B
:100470001DD2AF1207591206CDD007D006D005D035
:1004800004D003D002D001D000D0D0D082D083D00D
:06049000F0D0E0D2AF3213
:10024800C006C007EB90086693422DEBC39520507B
:100258002EC3E5209BFA74282BF9740327F709DAD3
:10026800F9A88174032581F58174282BF98707C3C0
:10027800E5819FFA0AA981E6F71819DAFA802C7441
:10028800282520F8C3EB9520FA74FD26F608DAF93C
:1002980074282520F8E6F9E924FDFF74272BF8E6F1
:1002A800C39FFAA807E7F60809DAFA74272BF8E6D5
:0C02B800F9D0E0F709D0E0F709E4F722E4
:1005C200D01FE520B40402802290086693552D7056
:1005D2001AD007D006D005D004D003D002D001D063
:1005E20000D0D0D082D083D0F0D0E0051FD51F023A
:0305F200D2AF2263
:0D084400C01F900866E52093422D02013090
:10013000AA81A8810874282525F9E7FF74282520BD
:10014000F9E7F9E525D395204033EFC399FEE7F6AB
:100150000809DEFA74282520F9E7D39AFF18888168
:10016000E525C39520FE600F74272520F9EFF404E0
:10017000FF09EF27F7DEFA8525200205C2E5256590
:10018000206036E8C39FFE1819E6F7DEFA742825CA
:1001900020F9E7D39AFF74282525F9E7F581E520B2
:1001A000C39525600CFE74272525F909EF27F7DE96
:0C01B000FA85252015810205C20205C257
:1005F50074046520700F74EF2581F5817444C0E0A3
:100605007408C0E03274FC2581F581900866E52008
:0F06150093F4522DC01F7430C0E07401C0E03266
:030000000201BC3E
:0C01BC00787FE4F6D8FD75813102020363
:1001C800020816E493A3F8E493A34003F68001F22F
:1001D80008DFF48029E493A3F85407240CC8C33338
:1001E800C4540F4420C8834004F456800146F6DF07
:1001F800E4800B0102040810204080900737E47E59
:10020800019360BCA3FF543F30E509541FFEE493FB
:10021800A360010ECF54C025E060A840B8E493A3C2
:10022800FAE493A3F8E493A3C8C582C8CAC583CAED
:10023800F0A3C8C582C8CAC583CADFE9DEE780BEA5
:0107580000A0
:00000001FF
